{
  "_format": "hh-sol-artifact-1",
  "contractName": "MyEpicNFT",
  "sourceName": "contracts/MyEpicNFT.sol",
  "abi": [
    {
      "inputs": [],
      "stateMutability": "nonpayable",
      "type": "constructor"
    },
    {
      "anonymous": false,
      "inputs": [
        {
          "indexed": true,
          "internalType": "address",
          "name": "owner",
          "type": "address"
        },
        {
          "indexed": true,
          "internalType": "address",
          "name": "approved",
          "type": "address"
        },
        {
          "indexed": true,
          "internalType": "uint256",
          "name": "tokenId",
          "type": "uint256"
        }
      ],
      "name": "Approval",
      "type": "event"
    },
    {
      "anonymous": false,
      "inputs": [
        {
          "indexed": true,
          "internalType": "address",
          "name": "owner",
          "type": "address"
        },
        {
          "indexed": true,
          "internalType": "address",
          "name": "operator",
          "type": "address"
        },
        {
          "indexed": false,
          "internalType": "bool",
          "name": "approved",
          "type": "bool"
        }
      ],
      "name": "ApprovalForAll",
      "type": "event"
    },
    {
      "anonymous": false,
      "inputs": [
        {
          "indexed": false,
          "internalType": "address",
          "name": "sender",
          "type": "address"
        },
        {
          "indexed": false,
          "internalType": "uint256",
          "name": "tokenId",
          "type": "uint256"
        }
      ],
      "name": "NewEpicNFTMinted",
      "type": "event"
    },
    {
      "anonymous": false,
      "inputs": [
        {
          "indexed": true,
          "internalType": "address",
          "name": "from",
          "type": "address"
        },
        {
          "indexed": true,
          "internalType": "address",
          "name": "to",
          "type": "address"
        },
        {
          "indexed": true,
          "internalType": "uint256",
          "name": "tokenId",
          "type": "uint256"
        }
      ],
      "name": "Transfer",
      "type": "event"
    },
    {
      "inputs": [
        {
          "internalType": "address",
          "name": "to",
          "type": "address"
        },
        {
          "internalType": "uint256",
          "name": "tokenId",
          "type": "uint256"
        }
      ],
      "name": "approve",
      "outputs": [],
      "stateMutability": "nonpayable",
      "type": "function"
    },
    {
      "inputs": [
        {
          "internalType": "address",
          "name": "owner",
          "type": "address"
        }
      ],
      "name": "balanceOf",
      "outputs": [
        {
          "internalType": "uint256",
          "name": "",
          "type": "uint256"
        }
      ],
      "stateMutability": "view",
      "type": "function"
    },
    {
      "inputs": [
        {
          "internalType": "uint256",
          "name": "tokenId",
          "type": "uint256"
        }
      ],
      "name": "getApproved",
      "outputs": [
        {
          "internalType": "address",
          "name": "",
          "type": "address"
        }
      ],
      "stateMutability": "view",
      "type": "function"
    },
    {
      "inputs": [],
      "name": "getTotalNFTsMintedCount",
      "outputs": [
        {
          "internalType": "uint256",
          "name": "",
          "type": "uint256"
        }
      ],
      "stateMutability": "view",
      "type": "function"
    },
    {
      "inputs": [
        {
          "internalType": "address",
          "name": "owner",
          "type": "address"
        },
        {
          "internalType": "address",
          "name": "operator",
          "type": "address"
        }
      ],
      "name": "isApprovedForAll",
      "outputs": [
        {
          "internalType": "bool",
          "name": "",
          "type": "bool"
        }
      ],
      "stateMutability": "view",
      "type": "function"
    },
    {
      "inputs": [],
      "name": "makeAnEpicNFT",
      "outputs": [],
      "stateMutability": "nonpayable",
      "type": "function"
    },
    {
      "inputs": [],
      "name": "name",
      "outputs": [
        {
          "internalType": "string",
          "name": "",
          "type": "string"
        }
      ],
      "stateMutability": "view",
      "type": "function"
    },
    {
      "inputs": [
        {
          "internalType": "uint256",
          "name": "tokenId",
          "type": "uint256"
        }
      ],
      "name": "ownerOf",
      "outputs": [
        {
          "internalType": "address",
          "name": "",
          "type": "address"
        }
      ],
      "stateMutability": "view",
      "type": "function"
    },
    {
      "inputs": [
        {
          "internalType": "uint256",
          "name": "tokenId",
          "type": "uint256"
        }
      ],
      "name": "pickRandomFirstWord",
      "outputs": [
        {
          "internalType": "string",
          "name": "",
          "type": "string"
        }
      ],
      "stateMutability": "view",
      "type": "function"
    },
    {
      "inputs": [
        {
          "internalType": "uint256",
          "name": "tokenId",
          "type": "uint256"
        }
      ],
      "name": "pickRandomSecondWord",
      "outputs": [
        {
          "internalType": "string",
          "name": "",
          "type": "string"
        }
      ],
      "stateMutability": "view",
      "type": "function"
    },
    {
      "inputs": [
        {
          "internalType": "uint256",
          "name": "tokenId",
          "type": "uint256"
        }
      ],
      "name": "pickRandomThirdWord",
      "outputs": [
        {
          "internalType": "string",
          "name": "",
          "type": "string"
        }
      ],
      "stateMutability": "view",
      "type": "function"
    },
    {
      "inputs": [
        {
          "internalType": "address",
          "name": "from",
          "type": "address"
        },
        {
          "internalType": "address",
          "name": "to",
          "type": "address"
        },
        {
          "internalType": "uint256",
          "name": "tokenId",
          "type": "uint256"
        }
      ],
      "name": "safeTransferFrom",
      "outputs": [],
      "stateMutability": "nonpayable",
      "type": "function"
    },
    {
      "inputs": [
        {
          "internalType": "address",
          "name": "from",
          "type": "address"
        },
        {
          "internalType": "address",
          "name": "to",
          "type": "address"
        },
        {
          "internalType": "uint256",
          "name": "tokenId",
          "type": "uint256"
        },
        {
          "internalType": "bytes",
          "name": "_data",
          "type": "bytes"
        }
      ],
      "name": "safeTransferFrom",
      "outputs": [],
      "stateMutability": "nonpayable",
      "type": "function"
    },
    {
      "inputs": [
        {
          "internalType": "address",
          "name": "operator",
          "type": "address"
        },
        {
          "internalType": "bool",
          "name": "approved",
          "type": "bool"
        }
      ],
      "name": "setApprovalForAll",
      "outputs": [],
      "stateMutability": "nonpayable",
      "type": "function"
    },
    {
      "inputs": [
        {
          "internalType": "bytes4",
          "name": "interfaceId",
          "type": "bytes4"
        }
      ],
      "name": "supportsInterface",
      "outputs": [
        {
          "internalType": "bool",
          "name": "",
          "type": "bool"
        }
      ],
      "stateMutability": "view",
      "type": "function"
    },
    {
      "inputs": [],
      "name": "symbol",
      "outputs": [
        {
          "internalType": "string",
          "name": "",
          "type": "string"
        }
      ],
      "stateMutability": "view",
      "type": "function"
    },
    {
      "inputs": [
        {
          "internalType": "uint256",
          "name": "tokenId",
          "type": "uint256"
        }
      ],
      "name": "tokenURI",
      "outputs": [
        {
          "internalType": "string",
          "name": "",
          "type": "string"
        }
      ],
      "stateMutability": "view",
      "type": "function"
    },
    {
      "inputs": [
        {
          "internalType": "address",
          "name": "from",
          "type": "address"
        },
        {
          "internalType": "address",
          "name": "to",
          "type": "address"
        },
        {
          "internalType": "uint256",
          "name": "tokenId",
          "type": "uint256"
        }
      ],
      "name": "transferFrom",
      "outputs": [],
      "stateMutability": "nonpayable",
      "type": "function"
    }
  ],
  "bytecode": "0x6080604052603260085560405180610160016040528061012f81526020016200435a61012f9139600990805190602001906200003d92919062000683565b506040518060c001604052806040518060400160405280600c81526020017f496e7465727374656c6c6172000000000000000000000000000000000000000081525081526020016040518060400160405280600581526020017f54656e657400000000000000000000000000000000000000000000000000000081525081526020016040518060400160405280600781526020017f44756e6b69726b0000000000000000000000000000000000000000000000000081525081526020016040518060400160405280600481526020017f44756e650000000000000000000000000000000000000000000000000000000081525081526020016040518060400160405280600881526020017f536361726661636500000000000000000000000000000000000000000000000081525081526020016040518060400160405280600681526020017f4d61747269780000000000000000000000000000000000000000000000000000815250815250600a906006620001bb92919062000714565b506040518060c001604052806040518060400160405280600581526020017f5465736c6100000000000000000000000000000000000000000000000000000081525081526020016040518060400160405280600781526020017f506f72736368650000000000000000000000000000000000000000000000000081525081526020016040518060400160405280600481526020017f417564690000000000000000000000000000000000000000000000000000000081525081526020016040518060400160405280600681526020017f4a6167756172000000000000000000000000000000000000000000000000000081525081526020016040518060400160405280600781526020017f42656e746c65790000000000000000000000000000000000000000000000000081525081526020016040518060400160405280600881526020017f4d61736572617469000000000000000000000000000000000000000000000000815250815250600b9060066200033992919062000714565b506040518060c001604052806040518060400160405280600381526020017f785163000000000000000000000000000000000000000000000000000000000081525081526020016040518060400160405280600881526020017f53756d6d6974314700000000000000000000000000000000000000000000000081525081526020016040518060400160405280600681526020017f53696c656e74000000000000000000000000000000000000000000000000000081525081526020016040518060400160405280600781526020017f50657374696c790000000000000000000000000000000000000000000000000081525081526020016040518060400160405280600581526020017f52616d656500000000000000000000000000000000000000000000000000000081525081526020016040518060400160405280600881526020017f5365717569736861000000000000000000000000000000000000000000000000815250815250600c906006620004b792919062000714565b50348015620004c557600080fd5b506040518060400160405280600981526020017f5371617572654e465400000000000000000000000000000000000000000000008152506040518060400160405280600681526020017f535155415245000000000000000000000000000000000000000000000000000081525081600090805190602001906200054a92919062000683565b5080600190805190602001906200056392919062000683565b505050620005b16040518060400160405280601781526020017f4d7920666972737420657665722045706963204e465421000000000000000000815250620005b760201b6200115b1760201c565b62000935565b6200065781604051602401620005ce919062000849565b6040516020818303038152906040527f41304fac000000000000000000000000000000000000000000000000000000007bffffffffffffffffffffffffffffffffffffffffffffffffffffffff19166020820180517bffffffffffffffffffffffffffffffffffffffffffffffffffffffff83818316178352505050506200065a60201b60201c565b50565b60008151905060006a636f6e736f6c652e6c6f679050602083016000808483855afa5050505050565b8280546200069190620008bf565b90600052602060002090601f016020900481019282620006b5576000855562000701565b82601f10620006d057805160ff191683800117855562000701565b8280016001018555821562000701579182015b8281111562000700578251825591602001919060010190620006e3565b5b5090506200071091906200077b565b5090565b82805482825590600052602060002090810192821562000768579160200282015b82811115620007675782518290805190602001906200075692919062000683565b509160200191906001019062000735565b5b5090506200077791906200079a565b5090565b5b80821115620007965760008160009055506001016200077c565b5090565b5b80821115620007be5760008181620007b49190620007c2565b506001016200079b565b5090565b508054620007d090620008bf565b6000825580601f10620007e4575062000805565b601f0160209004906000526020600020908101906200080491906200077b565b5b50565b600062000815826200086d565b62000821818562000878565b93506200083381856020860162000889565b6200083e8162000924565b840191505092915050565b6000602082019050818103600083015262000865818462000808565b905092915050565b600081519050919050565b600082825260208201905092915050565b60005b83811015620008a95780820151818401526020810190506200088c565b83811115620008b9576000848401525b50505050565b60006002820490506001821680620008d857607f821691505b60208210811415620008ef57620008ee620008f5565b5b50919050565b7f4e487b7100000000000000000000000000000000000000000000000000000000600052602260045260246000fd5b6000601f19601f8301169050919050565b613a1580620009456000396000f3fe608060405234801561001057600080fd5b50600436106101165760003560e01c806395d89b41116100a2578063b88d4fde11610071578063b88d4fde14610305578063c575757a14610321578063c87b56dd14610351578063de9d132f14610381578063e985e9c51461038b57610116565b806395d89b411461027d578063a22cb4651461029b578063aaae0a08146102b7578063b187301f146102d557610116565b806323b872dd116100e957806323b872dd146101b55780632de38d68146101d157806342842e0e146102015780636352211e1461021d57806370a082311461024d57610116565b806301ffc9a71461011b57806306fdde031461014b578063081812fc14610169578063095ea7b314610199575b600080fd5b6101356004803603810190610130919061255b565b6103bb565b604051610142919061326b565b60405180910390f35b61015361049d565b6040516101609190613286565b60405180910390f35b610183600480360381019061017e91906125ad565b61052f565b60405161019091906131db565b60405180910390f35b6101b360048036038101906101ae919061251f565b6105b4565b005b6101cf60048036038101906101ca9190612419565b6106cc565b005b6101eb60048036038101906101e691906125ad565b61072c565b6040516101f89190613286565b60405180910390f35b61021b60048036038101906102169190612419565b61084a565b005b610237600480360381019061023291906125ad565b61086a565b60405161024491906131db565b60405180910390f35b610267600480360381019061026291906123b4565b61091c565b6040516102749190613506565b60405180910390f35b6102856109d4565b6040516102929190613286565b60405180910390f35b6102b560048036038101906102b091906124e3565b610a66565b005b6102bf610a7c565b6040516102cc9190613506565b60405180910390f35b6102ef60048036038101906102ea91906125ad565b610a8d565b6040516102fc9190613286565b60405180910390f35b61031f600480360381019061031a9190612468565b610bab565b005b61033b600480360381019061033691906125ad565b610c0d565b6040516103489190613286565b60405180910390f35b61036b600480360381019061036691906125ad565b610d2b565b6040516103789190613286565b60405180910390f35b610389610e7d565b005b6103a560048036038101906103a091906123dd565b6110c7565b6040516103b2919061326b565b60405180910390f35b60007f80ac58cd000000000000000000000000000000000000000000000000000000007bffffffffffffffffffffffffffffffffffffffffffffffffffffffff1916827bffffffffffffffffffffffffffffffffffffffffffffffffffffffff1916148061048657507f5b5e139f000000000000000000000000000000000000000000000000000000007bffffffffffffffffffffffffffffffffffffffffffffffffffffffff1916827bffffffffffffffffffffffffffffffffffffffffffffffffffffffff1916145b806104965750610495826111f4565b5b9050919050565b6060600080546104ac906137a5565b80601f01602080910402602001604051908101604052809291908181526020018280546104d8906137a5565b80156105255780601f106104fa57610100808354040283529160200191610525565b820191906000526020600020905b81548152906001019060200180831161050857829003601f168201915b5050505050905090565b600061053a8261125e565b610579576040517f08c379a000000000000000000000000000000000000000000000000000000000815260040161057090613446565b60405180910390fd5b6004600083815260200190815260200160002060009054906101000a900473ffffffffffffffffffffffffffffffffffffffff169050919050565b60006105bf8261086a565b90508073ffffffffffffffffffffffffffffffffffffffff168373ffffffffffffffffffffffffffffffffffffffff161415610630576040517f08c379a0000000000000000000000000000000000000000000000000000000008152600401610627906134a6565b60405180910390fd5b8073ffffffffffffffffffffffffffffffffffffffff1661064f6112ca565b73ffffffffffffffffffffffffffffffffffffffff16148061067e575061067d816106786112ca565b6110c7565b5b6106bd576040517f08c379a00000000000000000000000000000000000000000000000000000000081526004016106b490613386565b60405180910390fd5b6106c783836112d2565b505050565b6106dd6106d76112ca565b8261138b565b61071c576040517f08c379a0000000000000000000000000000000000000000000000000000000008152600401610713906134c6565b60405180910390fd5b610727838383611469565b505050565b6060600061076061073c846116c5565b60405160200161074c9190613197565b604051602081830303815290604052611872565b9050600a80549050816107739190613820565b9050600a81815481106107af577f4e487b7100000000000000000000000000000000000000000000000000000000600052603260045260246000fd5b9060005260206000200180546107c4906137a5565b80601f01602080910402602001604051908101604052809291908181526020018280546107f0906137a5565b801561083d5780601f106108125761010080835404028352916020019161083d565b820191906000526020600020905b81548152906001019060200180831161082057829003601f168201915b5050505050915050919050565b61086583838360405180602001604052806000815250610bab565b505050565b6000806002600084815260200190815260200160002060009054906101000a900473ffffffffffffffffffffffffffffffffffffffff169050600073ffffffffffffffffffffffffffffffffffffffff168173ffffffffffffffffffffffffffffffffffffffff161415610913576040517f08c379a000000000000000000000000000000000000000000000000000000000815260040161090a906133c6565b60405180910390fd5b80915050919050565b60008073ffffffffffffffffffffffffffffffffffffffff168273ffffffffffffffffffffffffffffffffffffffff16141561098d576040517f08c379a0000000000000000000000000000000000000000000000000000000008152600401610984906133a6565b60405180910390fd5b600360008373ffffffffffffffffffffffffffffffffffffffff1673ffffffffffffffffffffffffffffffffffffffff168152602001908152602001600020549050919050565b6060600180546109e3906137a5565b80601f0160208091040260200160405190810160405280929190818152602001828054610a0f906137a5565b8015610a5c5780601f10610a3157610100808354040283529160200191610a5c565b820191906000526020600020905b815481529060010190602001808311610a3f57829003601f168201915b5050505050905090565b610a78610a716112ca565b83836118a5565b5050565b6000610a886007611a12565b905090565b60606000610ac1610a9d846116c5565b604051602001610aad9190613130565b604051602081830303815290604052611872565b9050600b8054905081610ad49190613820565b9050600b8181548110610b10577f4e487b7100000000000000000000000000000000000000000000000000000000600052603260045260246000fd5b906000526020600020018054610b25906137a5565b80601f0160208091040260200160405190810160405280929190818152602001828054610b51906137a5565b8015610b9e5780601f10610b7357610100808354040283529160200191610b9e565b820191906000526020600020905b815481529060010190602001808311610b8157829003601f168201915b5050505050915050919050565b610bbc610bb66112ca565b8361138b565b610bfb576040517f08c379a0000000000000000000000000000000000000000000000000000000008152600401610bf2906134c6565b60405180910390fd5b610c0784848484611a20565b50505050565b60606000610c41610c1d846116c5565b604051602001610c2d919061310e565b604051602081830303815290604052611872565b9050600c8054905081610c549190613820565b9050600c8181548110610c90577f4e487b7100000000000000000000000000000000000000000000000000000000600052603260045260246000fd5b906000526020600020018054610ca5906137a5565b80601f0160208091040260200160405190810160405280929190818152602001828054610cd1906137a5565b8015610d1e5780601f10610cf357610100808354040283529160200191610d1e565b820191906000526020600020905b815481529060010190602001808311610d0157829003601f168201915b5050505050915050919050565b6060610d368261125e565b610d75576040517f08c379a0000000000000000000000000000000000000000000000000000000008152600401610d6c90613426565b60405180910390fd5b6000600660008481526020019081526020016000208054610d95906137a5565b80601f0160208091040260200160405190810160405280929190818152602001828054610dc1906137a5565b8015610e0e5780601f10610de357610100808354040283529160200191610e0e565b820191906000526020600020905b815481529060010190602001808311610df157829003601f168201915b505050505090506000610e1f611a7c565b9050600081511415610e35578192505050610e78565b600082511115610e6a578082604051602001610e52929190613068565b60405160208183030381529060405292505050610e78565b610e7384611a93565b925050505b919050565b6000610e896007611a12565b90508060085411610ecf576040517f08c379a0000000000000000000000000000000000000000000000000000000008152600401610ec6906134e6565b60405180910390fd5b6000610eda8261072c565b90506000610ee783610a8d565b90506000610ef484610c0d565b90506000838383604051602001610f0d9392919061308c565b60405160208183030381529060405290506000600982604051602001610f349291906130bd565b60405160208183030381529060405290506000610f7983610f5484611b3a565b604051602001610f65929190613152565b604051602081830303815290604052611b3a565b9050600081604051602001610f8e91906131b9565b6040516020818303038152906040529050610fdd6040518060400160405280601581526020017f0a2d2d2d2d2d2d2d2d2d2d2d2d2d2d2d2d2d2d2d2d000000000000000000000081525061115b565b61100581604051602001610ff191906130ec565b60405160208183030381529060405261115b565b6110436040518060400160405280601581526020017f2d2d2d2d2d2d2d2d2d2d2d2d2d2d2d2d2d2d2d2d0a000000000000000000000081525061115b565b61104d3389611cf8565b6110578882611d16565b6110616007611d8a565b61108460405180606001604052806025815260200161397b602591398933611da0565b7febb98688741ffa4c7589bf325de30cf7becb63de567842e1ccdb6cb949fdc82c33896040516110b5929190613242565b60405180910390a15050505050505050565b6000600560008473ffffffffffffffffffffffffffffffffffffffff1673ffffffffffffffffffffffffffffffffffffffff16815260200190815260200160002060008373ffffffffffffffffffffffffffffffffffffffff1673ffffffffffffffffffffffffffffffffffffffff16815260200190815260200160002060009054906101000a900460ff16905092915050565b6111f18160405160240161116f9190613286565b6040516020818303038152906040527f41304fac000000000000000000000000000000000000000000000000000000007bffffffffffffffffffffffffffffffffffffffffffffffffffffffff19166020820180517bffffffffffffffffffffffffffffffffffffffffffffffffffffffff8381831617835250505050611e3f565b50565b60007f01ffc9a7000000000000000000000000000000000000000000000000000000007bffffffffffffffffffffffffffffffffffffffffffffffffffffffff1916827bffffffffffffffffffffffffffffffffffffffffffffffffffffffff1916149050919050565b60008073ffffffffffffffffffffffffffffffffffffffff166002600084815260200190815260200160002060009054906101000a900473ffffffffffffffffffffffffffffffffffffffff1673ffffffffffffffffffffffffffffffffffffffff1614159050919050565b600033905090565b816004600083815260200190815260200160002060006101000a81548173ffffffffffffffffffffffffffffffffffffffff021916908373ffffffffffffffffffffffffffffffffffffffff160217905550808273ffffffffffffffffffffffffffffffffffffffff166113458361086a565b73ffffffffffffffffffffffffffffffffffffffff167f8c5be1e5ebec7d5bd14f71427d1e84f3dd0314c0f7b2291e5b200ac8c7c3b92560405160405180910390a45050565b60006113968261125e565b6113d5576040517f08c379a00000000000000000000000000000000000000000000000000000000081526004016113cc90613366565b60405180910390fd5b60006113e08361086a565b90508073ffffffffffffffffffffffffffffffffffffffff168473ffffffffffffffffffffffffffffffffffffffff16148061144f57508373ffffffffffffffffffffffffffffffffffffffff166114378461052f565b73ffffffffffffffffffffffffffffffffffffffff16145b80611460575061145f81856110c7565b5b91505092915050565b8273ffffffffffffffffffffffffffffffffffffffff166114898261086a565b73ffffffffffffffffffffffffffffffffffffffff16146114df576040517f08c379a00000000000000000000000000000000000000000000000000000000081526004016114d690613466565b60405180910390fd5b600073ffffffffffffffffffffffffffffffffffffffff168273ffffffffffffffffffffffffffffffffffffffff16141561154f576040517f08c379a000000000000000000000000000000000000000000000000000000000815260040161154690613326565b60405180910390fd5b61155a838383611e68565b6115656000826112d2565b6001600360008573ffffffffffffffffffffffffffffffffffffffff1673ffffffffffffffffffffffffffffffffffffffff16815260200190815260200160002060008282546115b591906136bb565b925050819055506001600360008473ffffffffffffffffffffffffffffffffffffffff1673ffffffffffffffffffffffffffffffffffffffff168152602001908152602001600020600082825461160c91906135da565b92505081905550816002600083815260200190815260200160002060006101000a81548173ffffffffffffffffffffffffffffffffffffffff021916908373ffffffffffffffffffffffffffffffffffffffff160217905550808273ffffffffffffffffffffffffffffffffffffffff168473ffffffffffffffffffffffffffffffffffffffff167fddf252ad1be2c89b69c2b068fc378daa952ba7f163c4a11628f55a4df523b3ef60405160405180910390a4505050565b6060600082141561170d576040518060400160405280600181526020017f3000000000000000000000000000000000000000000000000000000000000000815250905061186d565b600082905060005b6000821461173f578080611728906137d7565b915050600a826117389190613630565b9150611715565b60008167ffffffffffffffff811115611781577f4e487b7100000000000000000000000000000000000000000000000000000000600052604160045260246000fd5b6040519080825280601f01601f1916602001820160405280156117b35781602001600182028036833780820191505090505b5090505b60008514611866576001826117cc91906136bb565b9150600a856117db9190613820565b60306117e791906135da565b60f81b818381518110611823577f4e487b7100000000000000000000000000000000000000000000000000000000600052603260045260246000fd5b60200101907effffffffffffffffffffffffffffffffffffffffffffffffffffffffffffff1916908160001a905350600a8561185f9190613630565b94506117b7565b8093505050505b919050565b6000816040516020016118859190613051565b6040516020818303038152906040528051906020012060001c9050919050565b8173ffffffffffffffffffffffffffffffffffffffff168373ffffffffffffffffffffffffffffffffffffffff161415611914576040517f08c379a000000000000000000000000000000000000000000000000000000000815260040161190b90613346565b60405180910390fd5b80600560008573ffffffffffffffffffffffffffffffffffffffff1673ffffffffffffffffffffffffffffffffffffffff16815260200190815260200160002060008473ffffffffffffffffffffffffffffffffffffffff1673ffffffffffffffffffffffffffffffffffffffff16815260200190815260200160002060006101000a81548160ff0219169083151502179055508173ffffffffffffffffffffffffffffffffffffffff168373ffffffffffffffffffffffffffffffffffffffff167f17307eab39ab6107e8899845ad3d59bd9653f200f220920489ca2b5937696c3183604051611a05919061326b565b60405180910390a3505050565b600081600001549050919050565b611a2b848484611469565b611a3784848484611e6d565b611a76576040517f08c379a0000000000000000000000000000000000000000000000000000000008152600401611a6d906132e6565b60405180910390fd5b50505050565b606060405180602001604052806000815250905090565b6060611a9e8261125e565b611add576040517f08c379a0000000000000000000000000000000000000000000000000000000008152600401611ad490613486565b60405180910390fd5b6000611ae7611a7c565b90506000815111611b075760405180602001604052806000815250611b32565b80611b11846116c5565b604051602001611b22929190613068565b6040516020818303038152906040525b915050919050565b60606000825190506000811415611b635760405180602001604052806000815250915050611cf3565b60006003600283611b7491906135da565b611b7e9190613630565b6004611b8a9190613661565b90506000602082611b9b91906135da565b67ffffffffffffffff811115611bda577f4e487b7100000000000000000000000000000000000000000000000000000000600052604160045260246000fd5b6040519080825280601f01601f191660200182016040528015611c0c5781602001600182028036833780820191505090505b50905060006040518060600160405280604081526020016139a0604091399050600181016020830160005b86811015611cb05760038101905062ffffff818a015116603f8160121c168401518060081b905060ff603f83600c1c1686015116810190508060081b905060ff603f8360061c1686015116810190508060081b905060ff603f831686015116810190508060e01b90508084526004840193505050611c37565b506003860660018114611cca5760028114611cda57611ce5565b613d3d60f01b6002830352611ce5565b603d60f81b60018303525b508484525050819450505050505b919050565b611d12828260405180602001604052806000815250612004565b5050565b611d1f8261125e565b611d5e576040517f08c379a0000000000000000000000000000000000000000000000000000000008152600401611d55906133e6565b60405180910390fd5b80600660008481526020019081526020016000209080519060200190611d85929190612240565b505050565b6001816000016000828254019250508190555050565b611e3a838383604051602401611db8939291906132a8565b6040516020818303038152906040527fe3849f79000000000000000000000000000000000000000000000000000000007bffffffffffffffffffffffffffffffffffffffffffffffffffffffff19166020820180517bffffffffffffffffffffffffffffffffffffffffffffffffffffffff8381831617835250505050611e3f565b505050565b60008151905060006a636f6e736f6c652e6c6f679050602083016000808483855afa5050505050565b505050565b6000611e8e8473ffffffffffffffffffffffffffffffffffffffff1661205f565b15611ff7578373ffffffffffffffffffffffffffffffffffffffff1663150b7a02611eb76112ca565b8786866040518563ffffffff1660e01b8152600401611ed994939291906131f6565b602060405180830381600087803b158015611ef357600080fd5b505af1925050508015611f2457506040513d601f19601f82011682018060405250810190611f219190612584565b60015b611fa7573d8060008114611f54576040519150601f19603f3d011682016040523d82523d6000602084013e611f59565b606091505b50600081511415611f9f576040517f08c379a0000000000000000000000000000000000000000000000000000000008152600401611f96906132e6565b60405180910390fd5b805181602001fd5b63150b7a0260e01b7bffffffffffffffffffffffffffffffffffffffffffffffffffffffff1916817bffffffffffffffffffffffffffffffffffffffffffffffffffffffff191614915050611ffc565b600190505b949350505050565b61200e8383612072565b61201b6000848484611e6d565b61205a576040517f08c379a0000000000000000000000000000000000000000000000000000000008152600401612051906132e6565b60405180910390fd5b505050565b600080823b905060008111915050919050565b600073ffffffffffffffffffffffffffffffffffffffff168273ffffffffffffffffffffffffffffffffffffffff1614156120e2576040517f08c379a00000000000000000000000000000000000000000000000000000000081526004016120d990613406565b60405180910390fd5b6120eb8161125e565b1561212b576040517f08c379a000000000000000000000000000000000000000000000000000000000815260040161212290613306565b60405180910390fd5b61213760008383611e68565b6001600360008473ffffffffffffffffffffffffffffffffffffffff1673ffffffffffffffffffffffffffffffffffffffff168152602001908152602001600020600082825461218791906135da565b92505081905550816002600083815260200190815260200160002060006101000a81548173ffffffffffffffffffffffffffffffffffffffff021916908373ffffffffffffffffffffffffffffffffffffffff160217905550808273ffffffffffffffffffffffffffffffffffffffff16600073ffffffffffffffffffffffffffffffffffffffff167fddf252ad1be2c89b69c2b068fc378daa952ba7f163c4a11628f55a4df523b3ef60405160405180910390a45050565b82805461224c906137a5565b90600052602060002090601f01602090048101928261226e57600085556122b5565b82601f1061228757805160ff19168380011785556122b5565b828001600101855582156122b5579182015b828111156122b4578251825591602001919060010190612299565b5b5090506122c291906122c6565b5090565b5b808211156122df5760008160009055506001016122c7565b5090565b60006122f66122f184613552565b613521565b90508281526020810184848401111561230e57600080fd5b612319848285613763565b509392505050565b6000813590506123308161391e565b92915050565b60008135905061234581613935565b92915050565b60008135905061235a8161394c565b92915050565b60008151905061236f8161394c565b92915050565b600082601f83011261238657600080fd5b81356123968482602086016122e3565b91505092915050565b6000813590506123ae81613963565b92915050565b6000602082840312156123c657600080fd5b60006123d484828501612321565b91505092915050565b600080604083850312156123f057600080fd5b60006123fe85828601612321565b925050602061240f85828601612321565b9150509250929050565b60008060006060848603121561242e57600080fd5b600061243c86828701612321565b935050602061244d86828701612321565b925050604061245e8682870161239f565b9150509250925092565b6000806000806080858703121561247e57600080fd5b600061248c87828801612321565b945050602061249d87828801612321565b93505060406124ae8782880161239f565b925050606085013567ffffffffffffffff8111156124cb57600080fd5b6124d787828801612375565b91505092959194509250565b600080604083850312156124f657600080fd5b600061250485828601612321565b925050602061251585828601612336565b9150509250929050565b6000806040838503121561253257600080fd5b600061254085828601612321565b92505060206125518582860161239f565b9150509250929050565b60006020828403121561256d57600080fd5b600061257b8482850161234b565b91505092915050565b60006020828403121561259657600080fd5b60006125a484828501612360565b91505092915050565b6000602082840312156125bf57600080fd5b60006125cd8482850161239f565b91505092915050565b6125df816136ef565b82525050565b6125ee81613701565b82525050565b60006125ff82613597565b61260981856135ad565b9350612619818560208601613772565b6126228161390d565b840191505092915050565b6000612638826135a2565b61264281856135be565b9350612652818560208601613772565b61265b8161390d565b840191505092915050565b6000612671826135a2565b61267b81856135cf565b935061268b818560208601613772565b80840191505092915050565b600081546126a4816137a5565b6126ae81866135cf565b945060018216600081146126c957600181146126da5761270d565b60ff1983168652818601935061270d565b6126e385613582565b60005b83811015612705578154818901526001820191506020810190506126e6565b838801955050505b50505092915050565b60006127236025836135cf565b91507f68747470733a2f2f6e6674707265766965772e30786465762e636f6465732f3f60008301527f636f64653d0000000000000000000000000000000000000000000000000000006020830152602582019050919050565b60006127896032836135be565b91507f4552433732313a207472616e7366657220746f206e6f6e20455243373231526560008301527f63656976657220696d706c656d656e74657200000000000000000000000000006020830152604082019050919050565b60006127ef601c836135be565b91507f4552433732313a20746f6b656e20616c7265616479206d696e746564000000006000830152602082019050919050565b600061282f600a836135cf565b91507f54484952445f574f5244000000000000000000000000000000000000000000006000830152600a82019050919050565b600061286f6024836135be565b91507f4552433732313a207472616e7366657220746f20746865207a65726f2061646460008301527f72657373000000000000000000000000000000000000000000000000000000006020830152604082019050919050565b60006128d56019836135be565b91507f4552433732313a20617070726f766520746f2063616c6c6572000000000000006000830152602082019050919050565b60006129156063836135cf565b91507f222c20226465736372697074696f6e223a20224120686967686c79206163636c60008301527f61696d656420636f6c6c656374696f6e206f6620737175617265732e222c202260208301527f696d616765223a2022646174613a696d6167652f7376672b786d6c3b6261736560408301527f36342c00000000000000000000000000000000000000000000000000000000006060830152606382019050919050565b60006129c7600b836135cf565b91507f5345434f4e445f574f52440000000000000000000000000000000000000000006000830152600b82019050919050565b6000612a07602c836135be565b91507f4552433732313a206f70657261746f7220717565727920666f72206e6f6e657860008301527f697374656e7420746f6b656e00000000000000000000000000000000000000006020830152604082019050919050565b6000612a6d600d836135cf565b91507f3c2f746578743e3c2f7376673e000000000000000000000000000000000000006000830152600d82019050919050565b6000612aad6038836135be565b91507f4552433732313a20617070726f76652063616c6c6572206973206e6f74206f7760008301527f6e6572206e6f7220617070726f76656420666f7220616c6c00000000000000006020830152604082019050919050565b6000612b13602a836135be565b91507f4552433732313a2062616c616e636520717565727920666f7220746865207a6560008301527f726f2061646472657373000000000000000000000000000000000000000000006020830152604082019050919050565b6000612b796029836135be565b91507f4552433732313a206f776e657220717565727920666f72206e6f6e657869737460008301527f656e7420746f6b656e00000000000000000000000000000000000000000000006020830152604082019050919050565b6000612bdf602e836135be565b91507f45524337323155524953746f726167653a2055524920736574206f66206e6f6e60008301527f6578697374656e7420746f6b656e0000000000000000000000000000000000006020830152604082019050919050565b6000612c456002836135cf565b91507f227d0000000000000000000000000000000000000000000000000000000000006000830152600282019050919050565b6000612c856020836135be565b91507f4552433732313a206d696e7420746f20746865207a65726f20616464726573736000830152602082019050919050565b6000612cc56031836135be565b91507f45524337323155524953746f726167653a2055524920717565727920666f722060008301527f6e6f6e6578697374656e7420746f6b656e0000000000000000000000000000006020830152604082019050919050565b6000612d2b602c836135be565b91507f4552433732313a20617070726f76656420717565727920666f72206e6f6e657860008301527f697374656e7420746f6b656e00000000000000000000000000000000000000006020830152604082019050919050565b6000612d916029836135be565b91507f4552433732313a207472616e73666572206f6620746f6b656e2074686174206960008301527f73206e6f74206f776e00000000000000000000000000000000000000000000006020830152604082019050919050565b6000612df7602f836135be565b91507f4552433732314d657461646174613a2055524920717565727920666f72206e6f60008301527f6e6578697374656e7420746f6b656e00000000000000000000000000000000006020830152604082019050919050565b6000612e5d600a836135cf565b91507f7b226e616d65223a2022000000000000000000000000000000000000000000006000830152600a82019050919050565b6000612e9d6021836135be565b91507f4552433732313a20617070726f76616c20746f2063757272656e74206f776e6560008301527f72000000000000000000000000000000000000000000000000000000000000006020830152604082019050919050565b6000612f03600a836135cf565b91507f46495253545f574f5244000000000000000000000000000000000000000000006000830152600a82019050919050565b6000612f43601d836135cf565b91507f646174613a6170706c69636174696f6e2f6a736f6e3b6261736536342c0000006000830152601d82019050919050565b6000612f836031836135be565b91507f4552433732313a207472616e736665722063616c6c6572206973206e6f74206f60008301527f776e6572206e6f7220617070726f7665640000000000000000000000000000006020830152604082019050919050565b6000612fe9602a836135be565b91507f534f4c44204f55543a20546865726527732061206d696e74206c696d6974652060008301527f6f66203530204e465473000000000000000000000000000000000000000000006020830152604082019050919050565b61304b81613759565b82525050565b600061305d8284612666565b915081905092915050565b60006130748285612666565b91506130808284612666565b91508190509392505050565b60006130988286612666565b91506130a48285612666565b91506130b08284612666565b9150819050949350505050565b60006130c98285612697565b91506130d58284612666565b91506130e082612a60565b91508190509392505050565b60006130f782612716565b91506131038284612666565b915081905092915050565b600061311982612822565b91506131258284612666565b915081905092915050565b600061313b826129ba565b91506131478284612666565b915081905092915050565b600061315d82612e50565b91506131698285612666565b915061317482612908565b91506131808284612666565b915061318b82612c38565b91508190509392505050565b60006131a282612ef6565b91506131ae8284612666565b915081905092915050565b60006131c482612f36565b91506131d08284612666565b915081905092915050565b60006020820190506131f060008301846125d6565b92915050565b600060808201905061320b60008301876125d6565b61321860208301866125d6565b6132256040830185613042565b818103606083015261323781846125f4565b905095945050505050565b600060408201905061325760008301856125d6565b6132646020830184613042565b9392505050565b600060208201905061328060008301846125e5565b92915050565b600060208201905081810360008301526132a0818461262d565b905092915050565b600060608201905081810360008301526132c2818661262d565b90506132d16020830185613042565b6132de60408301846125d6565b949350505050565b600060208201905081810360008301526132ff8161277c565b9050919050565b6000602082019050818103600083015261331f816127e2565b9050919050565b6000602082019050818103600083015261333f81612862565b9050919050565b6000602082019050818103600083015261335f816128c8565b9050919050565b6000602082019050818103600083015261337f816129fa565b9050919050565b6000602082019050818103600083015261339f81612aa0565b9050919050565b600060208201905081810360008301526133bf81612b06565b9050919050565b600060208201905081810360008301526133df81612b6c565b9050919050565b600060208201905081810360008301526133ff81612bd2565b9050919050565b6000602082019050818103600083015261341f81612c78565b9050919050565b6000602082019050818103600083015261343f81612cb8565b9050919050565b6000602082019050818103600083015261345f81612d1e565b9050919050565b6000602082019050818103600083015261347f81612d84565b9050919050565b6000602082019050818103600083015261349f81612dea565b9050919050565b600060208201905081810360008301526134bf81612e90565b9050919050565b600060208201905081810360008301526134df81612f76565b9050919050565b600060208201905081810360008301526134ff81612fdc565b9050919050565b600060208201905061351b6000830184613042565b92915050565b6000604051905081810181811067ffffffffffffffff82111715613548576135476138de565b5b8060405250919050565b600067ffffffffffffffff82111561356d5761356c6138de565b5b601f19601f8301169050602081019050919050565b60008190508160005260206000209050919050565b600081519050919050565b600081519050919050565b600082825260208201905092915050565b600082825260208201905092915050565b600081905092915050565b60006135e582613759565b91506135f083613759565b9250827fffffffffffffffffffffffffffffffffffffffffffffffffffffffffffffffff0382111561362557613624613851565b5b828201905092915050565b600061363b82613759565b915061364683613759565b92508261365657613655613880565b5b828204905092915050565b600061366c82613759565b915061367783613759565b9250817fffffffffffffffffffffffffffffffffffffffffffffffffffffffffffffffff04831182151516156136b0576136af613851565b5b828202905092915050565b60006136c682613759565b91506136d183613759565b9250828210156136e4576136e3613851565b5b828203905092915050565b60006136fa82613739565b9050919050565b60008115159050919050565b60007fffffffff0000000000000000000000000000000000000000000000000000000082169050919050565b600073ffffffffffffffffffffffffffffffffffffffff82169050919050565b6000819050919050565b82818337600083830152505050565b60005b83811015613790578082015181840152602081019050613775565b8381111561379f576000848401525b50505050565b600060028204905060018216806137bd57607f821691505b602082108114156137d1576137d06138af565b5b50919050565b60006137e282613759565b91507fffffffffffffffffffffffffffffffffffffffffffffffffffffffffffffffff82141561381557613814613851565b5b600182019050919050565b600061382b82613759565b915061383683613759565b92508261384657613845613880565b5b828206905092915050565b7f4e487b7100000000000000000000000000000000000000000000000000000000600052601160045260246000fd5b7f4e487b7100000000000000000000000000000000000000000000000000000000600052601260045260246000fd5b7f4e487b7100000000000000000000000000000000000000000000000000000000600052602260045260246000fd5b7f4e487b7100000000000000000000000000000000000000000000000000000000600052604160045260246000fd5b6000601f19601f8301169050919050565b613927816136ef565b811461393257600080fd5b50565b61393e81613701565b811461394957600080fd5b50565b6139558161370d565b811461396057600080fd5b50565b61396c81613759565b811461397757600080fd5b5056fe416e204e465420772f20494420257320686173206265656e206d696e74656420746f2025734142434445464748494a4b4c4d4e4f505152535455565758595a6162636465666768696a6b6c6d6e6f707172737475767778797a303132333435363738392b2fa26469706673582212208991ee5847662283b46e867c775e8f1a525af8d09fa06279a8f42814f1a9df5364736f6c634300080000333c73766720786d6c6e733d27687474703a2f2f7777772e77332e6f72672f323030302f73766727207072657365727665417370656374526174696f3d27784d696e594d696e206d656574272076696577426f783d273020302033353020333530273e3c7374796c653e2e62617365207b2066696c6c3a2077686974653b20666f6e742d66616d696c793a2073657269663b20666f6e742d73697a653a20323470783b207d3c2f7374796c653e3c726563742077696474683d273130302527206865696768743d2731303025272066696c6c3d27626c61636b27202f3e3c7465787420783d273530252720793d273530252720636c6173733d27626173652720646f6d696e616e742d626173656c696e653d276d6964646c652720746578742d616e63686f723d276d6964646c65273e",
  "linkReferences": {},
  "deployedLinkReferences": {}
}